{
  "_format": "hh-sol-artifact-1",
  "contractName": "Certificate",
  "sourceName": "contracts/Certificate.sol",
  "abi": [
    {
      "inputs": [],
      "stateMutability": "nonpayable",
      "type": "constructor"
    },
    {
      "inputs": [
        {
          "internalType": "string",
          "name": "",
          "type": "string"
        }
      ],
      "name": "certificateTransactions",
      "outputs": [
        {
          "internalType": "bytes32",
          "name": "",
          "type": "bytes32"
        }
      ],
      "stateMutability": "view",
      "type": "function"
    },
    {
      "inputs": [
        {
          "internalType": "string",
          "name": "",
          "type": "string"
        }
      ],
      "name": "certificates",
      "outputs": [
        {
          "internalType": "string",
          "name": "studentName",
          "type": "string"
        },
        {
          "internalType": "string",
          "name": "course",
          "type": "string"
        },
        {
          "internalType": "uint256",
          "name": "issueDate",
          "type": "uint256"
        },
        {
          "internalType": "string",
          "name": "issuer",
          "type": "string"
        }
      ],
      "stateMutability": "view",
      "type": "function"
    },
    {
      "inputs": [
        {
          "internalType": "string",
          "name": "certId",
          "type": "string"
        },
        {
          "internalType": "string",
          "name": "studentName",
          "type": "string"
        },
        {
          "internalType": "string",
          "name": "course",
          "type": "string"
        },
        {
          "internalType": "string",
          "name": "issuer",
          "type": "string"
        }
      ],
      "name": "issueCertificate",
      "outputs": [],
      "stateMutability": "nonpayable",
      "type": "function"
    },
    {
      "inputs": [],
      "name": "owner",
      "outputs": [
        {
          "internalType": "address",
          "name": "",
          "type": "address"
        }
      ],
      "stateMutability": "view",
      "type": "function"
    },
    {
      "inputs": [
        {
          "internalType": "string",
          "name": "certId",
          "type": "string"
        }
      ],
      "name": "verifyCertificate",
      "outputs": [
        {
          "components": [
            {
              "internalType": "string",
              "name": "studentName",
              "type": "string"
            },
            {
              "internalType": "string",
              "name": "course",
              "type": "string"
            },
            {
              "internalType": "uint256",
              "name": "issueDate",
              "type": "uint256"
            },
            {
              "internalType": "string",
              "name": "issuer",
              "type": "string"
            }
          ],
          "internalType": "struct Certificate.Cert",
          "name": "certificate",
          "type": "tuple"
        },
        {
          "internalType": "bytes32",
          "name": "transactionHash",
          "type": "bytes32"
        }
      ],
      "stateMutability": "view",
      "type": "function"
    }
  ],
  "bytecode": "0x6080604052348015600f57600080fd5b5033600260006101000a81548173ffffffffffffffffffffffffffffffffffffffff021916908373ffffffffffffffffffffffffffffffffffffffff160217905550611047806100606000396000f3fe608060405234801561001057600080fd5b50600436106100575760003560e01c806331c32cf81461005c578063818a29941461008c5780638b23d875146100a85780638da5cb5b146100d95780638f2b91ea146100f7575b600080fd5b6100766004803603810190610071919061084f565b61012a565b60405161008391906108b1565b60405180910390f35b6100a660048036038101906100a191906108cc565b610158565b005b6100c260048036038101906100bd919061084f565b6102ac565b6040516100d0929190610aac565b60405180910390f35b6100e16104c9565b6040516100ee9190610b1d565b60405180910390f35b610111600480360381019061010c919061084f565b6104ef565b6040516101219493929190610b91565b60405180910390f35b6001818051602081018201805184825260208301602085012081835280955050505050506000915090505481565b600260009054906101000a900473ffffffffffffffffffffffffffffffffffffffff1673ffffffffffffffffffffffffffffffffffffffff163373ffffffffffffffffffffffffffffffffffffffff16146101e8576040517f08c379a00000000000000000000000000000000000000000000000000000000081526004016101df90610c5d565b60405180910390fd5b6040518060800160405280848152602001838152602001428152602001828152506000856040516102199190610cb9565b9081526020016040518091039020600082015181600001908161023c9190610edc565b5060208201518160010190816102529190610edc565b506040820151816002015560608201518160030190816102729190610edc565b509050506001436102839190610fdd565b406001856040516102949190610cb9565b90815260200160405180910390208190555050505050565b6102b46106cd565b600080836040516102c59190610cb9565b90815260200160405180910390206001846040516102e39190610cb9565b9081526020016040518091039020548160405180608001604052908160008201805461030e90610cff565b80601f016020809104026020016040519081016040528092919081815260200182805461033a90610cff565b80156103875780601f1061035c57610100808354040283529160200191610387565b820191906000526020600020905b81548152906001019060200180831161036a57829003601f168201915b505050505081526020016001820180546103a090610cff565b80601f01602080910402602001604051908101604052809291908181526020018280546103cc90610cff565b80156104195780601f106103ee57610100808354040283529160200191610419565b820191906000526020600020905b8154815290600101906020018083116103fc57829003601f168201915b505050505081526020016002820154815260200160038201805461043c90610cff565b80601f016020809104026020016040519081016040528092919081815260200182805461046890610cff565b80156104b55780601f1061048a576101008083540402835291602001916104b5565b820191906000526020600020905b81548152906001019060200180831161049857829003601f168201915b505050505081525050915091509150915091565b600260009054906101000a900473ffffffffffffffffffffffffffffffffffffffff1681565b60008180516020810182018051848252602083016020850120818352809550505050505060009150905080600001805461052890610cff565b80601f016020809104026020016040519081016040528092919081815260200182805461055490610cff565b80156105a15780601f10610576576101008083540402835291602001916105a1565b820191906000526020600020905b81548152906001019060200180831161058457829003601f168201915b5050505050908060010180546105b690610cff565b80601f01602080910402602001604051908101604052809291908181526020018280546105e290610cff565b801561062f5780601f106106045761010080835404028352916020019161062f565b820191906000526020600020905b81548152906001019060200180831161061257829003601f168201915b50505050509080600201549080600301805461064a90610cff565b80601f016020809104026020016040519081016040528092919081815260200182805461067690610cff565b80156106c35780601f10610698576101008083540402835291602001916106c3565b820191906000526020600020905b8154815290600101906020018083116106a657829003601f168201915b5050505050905084565b6040518060800160405280606081526020016060815260200160008152602001606081525090565b6000604051905090565b600080fd5b600080fd5b600080fd5b600080fd5b6000601f19601f8301169050919050565b7f4e487b7100000000000000000000000000000000000000000000000000000000600052604160045260246000fd5b61075c82610713565b810181811067ffffffffffffffff8211171561077b5761077a610724565b5b80604052505050565b600061078e6106f5565b905061079a8282610753565b919050565b600067ffffffffffffffff8211156107ba576107b9610724565b5b6107c382610713565b9050602081019050919050565b82818337600083830152505050565b60006107f26107ed8461079f565b610784565b90508281526020810184848401111561080e5761080d61070e565b5b6108198482856107d0565b509392505050565b600082601f83011261083657610835610709565b5b81356108468482602086016107df565b91505092915050565b600060208284031215610865576108646106ff565b5b600082013567ffffffffffffffff81111561088357610882610704565b5b61088f84828501610821565b91505092915050565b6000819050919050565b6108ab81610898565b82525050565b60006020820190506108c660008301846108a2565b92915050565b600080600080608085870312156108e6576108e56106ff565b5b600085013567ffffffffffffffff81111561090457610903610704565b5b61091087828801610821565b945050602085013567ffffffffffffffff81111561093157610930610704565b5b61093d87828801610821565b935050604085013567ffffffffffffffff81111561095e5761095d610704565b5b61096a87828801610821565b925050606085013567ffffffffffffffff81111561098b5761098a610704565b5b61099787828801610821565b91505092959194509250565b600081519050919050565b600082825260208201905092915050565b60005b838110156109dd5780820151818401526020810190506109c2565b60008484015250505050565b60006109f4826109a3565b6109fe81856109ae565b9350610a0e8185602086016109bf565b610a1781610713565b840191505092915050565b6000819050919050565b610a3581610a22565b82525050565b60006080830160008301518482036000860152610a5882826109e9565b91505060208301518482036020860152610a7282826109e9565b9150506040830151610a876040860182610a2c565b5060608301518482036060860152610a9f82826109e9565b9150508091505092915050565b60006040820190508181036000830152610ac68185610a3b565b9050610ad560208301846108a2565b9392505050565b600073ffffffffffffffffffffffffffffffffffffffff82169050919050565b6000610b0782610adc565b9050919050565b610b1781610afc565b82525050565b6000602082019050610b326000830184610b0e565b92915050565b600082825260208201905092915050565b6000610b54826109a3565b610b5e8185610b38565b9350610b6e8185602086016109bf565b610b7781610713565b840191505092915050565b610b8b81610a22565b82525050565b60006080820190508181036000830152610bab8187610b49565b90508181036020830152610bbf8186610b49565b9050610bce6040830185610b82565b8181036060830152610be08184610b49565b905095945050505050565b7f4f6e6c79206f776e65722063616e20697373756520636572746966696361746560008201527f7300000000000000000000000000000000000000000000000000000000000000602082015250565b6000610c47602183610b38565b9150610c5282610beb565b604082019050919050565b60006020820190508181036000830152610c7681610c3a565b9050919050565b600081905092915050565b6000610c93826109a3565b610c9d8185610c7d565b9350610cad8185602086016109bf565b80840191505092915050565b6000610cc58284610c88565b915081905092915050565b7f4e487b7100000000000000000000000000000000000000000000000000000000600052602260045260246000fd5b60006002820490506001821680610d1757607f821691505b602082108103610d2a57610d29610cd0565b5b50919050565b60008190508160005260206000209050919050565b60006020601f8301049050919050565b600082821b905092915050565b600060088302610d927fffffffffffffffffffffffffffffffffffffffffffffffffffffffffffffffff82610d55565b610d9c8683610d55565b95508019841693508086168417925050509392505050565b6000819050919050565b6000610dd9610dd4610dcf84610a22565b610db4565b610a22565b9050919050565b6000819050919050565b610df383610dbe565b610e07610dff82610de0565b848454610d62565b825550505050565b600090565b610e1c610e0f565b610e27818484610dea565b505050565b5b81811015610e4b57610e40600082610e14565b600181019050610e2d565b5050565b601f821115610e9057610e6181610d30565b610e6a84610d45565b81016020851015610e79578190505b610e8d610e8585610d45565b830182610e2c565b50505b505050565b600082821c905092915050565b6000610eb360001984600802610e95565b1980831691505092915050565b6000610ecc8383610ea2565b9150826002028217905092915050565b610ee5826109a3565b67ffffffffffffffff811115610efe57610efd610724565b5b610f088254610cff565b610f13828285610e4f565b600060209050601f831160018114610f465760008415610f34578287015190505b610f3e8582610ec0565b865550610fa6565b601f198416610f5486610d30565b60005b82811015610f7c57848901518255600182019150602085019450602081019050610f57565b86831015610f995784890151610f95601f891682610ea2565b8355505b6001600288020188555050505b505050505050565b7f4e487b7100000000000000000000000000000000000000000000000000000000600052601160045260246000fd5b6000610fe882610a22565b9150610ff383610a22565b925082820390508181111561100b5761100a610fae565b5b9291505056fea264697066735822122024e214ffe14d534ab0e61267670af4bc6402ee34efb9b89191a87e41bf5c611c64736f6c634300081c0033",
  "linkReferences": {},
  "deployedLinkReferences": {}
}