{
  "_format": "hh-sol-artifact-1",
  "contractName": "Certificate",
  "sourceName": "contracts/Certificate.sol",
  "abi": [
    {
      "inputs": [],
      "stateMutability": "nonpayable",
      "type": "constructor"
    },
    {
      "inputs": [
        {
          "internalType": "string",
          "name": "",
          "type": "string"
        }
      ],
      "name": "certificates",
      "outputs": [
        {
          "internalType": "string",
          "name": "studentName",
          "type": "string"
        },
        {
          "internalType": "string",
          "name": "course",
          "type": "string"
        },
        {
          "internalType": "uint256",
          "name": "issueDate",
          "type": "uint256"
        },
        {
          "internalType": "string",
          "name": "issuer",
          "type": "string"
        }
      ],
      "stateMutability": "view",
      "type": "function"
    },
    {
      "inputs": [
        {
          "internalType": "string",
          "name": "certId",
          "type": "string"
        },
        {
          "internalType": "string",
          "name": "studentName",
          "type": "string"
        },
        {
          "internalType": "string",
          "name": "course",
          "type": "string"
        },
        {
          "internalType": "string",
          "name": "issuer",
          "type": "string"
        }
      ],
      "name": "issueCertificate",
      "outputs": [],
      "stateMutability": "nonpayable",
      "type": "function"
    },
    {
      "inputs": [],
      "name": "owner",
      "outputs": [
        {
          "internalType": "address",
          "name": "",
          "type": "address"
        }
      ],
      "stateMutability": "view",
      "type": "function"
    },
    {
      "inputs": [
        {
          "internalType": "string",
          "name": "certId",
          "type": "string"
        }
      ],
      "name": "verifyCertificate",
      "outputs": [
        {
          "components": [
            {
              "internalType": "string",
              "name": "studentName",
              "type": "string"
            },
            {
              "internalType": "string",
              "name": "course",
              "type": "string"
            },
            {
              "internalType": "uint256",
              "name": "issueDate",
              "type": "uint256"
            },
            {
              "internalType": "string",
              "name": "issuer",
              "type": "string"
            }
          ],
          "internalType": "struct Certificate.Cert",
          "name": "",
          "type": "tuple"
        }
      ],
      "stateMutability": "view",
      "type": "function"
    }
  ],
  "bytecode": "0x6080604052348015600f57600080fd5b5033600160006101000a81548173ffffffffffffffffffffffffffffffffffffffff021916908373ffffffffffffffffffffffffffffffffffffffff160217905550610ee3806100606000396000f3fe608060405234801561001057600080fd5b506004361061004c5760003560e01c8063818a2994146100515780638b23d8751461006d5780638da5cb5b1461009d5780638f2b91ea146100bb575b600080fd5b61006b60048036038101906100669190610790565b6100ee565b005b61008760048036038101906100829190610867565b610212565b60405161009491906109b9565b60405180910390f35b6100a561040a565b6040516100b29190610a1c565b60405180910390f35b6100d560048036038101906100d09190610867565b610430565b6040516100e59493929190610a90565b60405180910390f35b600160009054906101000a900473ffffffffffffffffffffffffffffffffffffffff1673ffffffffffffffffffffffffffffffffffffffff163373ffffffffffffffffffffffffffffffffffffffff161461017e576040517f08c379a000000000000000000000000000000000000000000000000000000000815260040161017590610b5c565b60405180910390fd5b6040518060800160405280848152602001838152602001428152602001828152506000856040516101af9190610bb8565b908152602001604051809103902060008201518160000190816101d29190610ddb565b5060208201518160010190816101e89190610ddb565b506040820151816002015560608201518160030190816102089190610ddb565b5090505050505050565b61021a61060e565b60008260405161022a9190610bb8565b908152602001604051809103902060405180608001604052908160008201805461025390610bfe565b80601f016020809104026020016040519081016040528092919081815260200182805461027f90610bfe565b80156102cc5780601f106102a1576101008083540402835291602001916102cc565b820191906000526020600020905b8154815290600101906020018083116102af57829003601f168201915b505050505081526020016001820180546102e590610bfe565b80601f016020809104026020016040519081016040528092919081815260200182805461031190610bfe565b801561035e5780601f106103335761010080835404028352916020019161035e565b820191906000526020600020905b81548152906001019060200180831161034157829003601f168201915b505050505081526020016002820154815260200160038201805461038190610bfe565b80601f01602080910402602001604051908101604052809291908181526020018280546103ad90610bfe565b80156103fa5780601f106103cf576101008083540402835291602001916103fa565b820191906000526020600020905b8154815290600101906020018083116103dd57829003601f168201915b5050505050815250509050919050565b600160009054906101000a900473ffffffffffffffffffffffffffffffffffffffff1681565b60008180516020810182018051848252602083016020850120818352809550505050505060009150905080600001805461046990610bfe565b80601f016020809104026020016040519081016040528092919081815260200182805461049590610bfe565b80156104e25780601f106104b7576101008083540402835291602001916104e2565b820191906000526020600020905b8154815290600101906020018083116104c557829003601f168201915b5050505050908060010180546104f790610bfe565b80601f016020809104026020016040519081016040528092919081815260200182805461052390610bfe565b80156105705780601f1061054557610100808354040283529160200191610570565b820191906000526020600020905b81548152906001019060200180831161055357829003601f168201915b50505050509080600201549080600301805461058b90610bfe565b80601f01602080910402602001604051908101604052809291908181526020018280546105b790610bfe565b80156106045780601f106105d957610100808354040283529160200191610604565b820191906000526020600020905b8154815290600101906020018083116105e757829003601f168201915b5050505050905084565b6040518060800160405280606081526020016060815260200160008152602001606081525090565b6000604051905090565b600080fd5b600080fd5b600080fd5b600080fd5b6000601f19601f8301169050919050565b7f4e487b7100000000000000000000000000000000000000000000000000000000600052604160045260246000fd5b61069d82610654565b810181811067ffffffffffffffff821117156106bc576106bb610665565b5b80604052505050565b60006106cf610636565b90506106db8282610694565b919050565b600067ffffffffffffffff8211156106fb576106fa610665565b5b61070482610654565b9050602081019050919050565b82818337600083830152505050565b600061073361072e846106e0565b6106c5565b90508281526020810184848401111561074f5761074e61064f565b5b61075a848285610711565b509392505050565b600082601f8301126107775761077661064a565b5b8135610787848260208601610720565b91505092915050565b600080600080608085870312156107aa576107a9610640565b5b600085013567ffffffffffffffff8111156107c8576107c7610645565b5b6107d487828801610762565b945050602085013567ffffffffffffffff8111156107f5576107f4610645565b5b61080187828801610762565b935050604085013567ffffffffffffffff81111561082257610821610645565b5b61082e87828801610762565b925050606085013567ffffffffffffffff81111561084f5761084e610645565b5b61085b87828801610762565b91505092959194509250565b60006020828403121561087d5761087c610640565b5b600082013567ffffffffffffffff81111561089b5761089a610645565b5b6108a784828501610762565b91505092915050565b600081519050919050565b600082825260208201905092915050565b60005b838110156108ea5780820151818401526020810190506108cf565b60008484015250505050565b6000610901826108b0565b61090b81856108bb565b935061091b8185602086016108cc565b61092481610654565b840191505092915050565b6000819050919050565b6109428161092f565b82525050565b6000608083016000830151848203600086015261096582826108f6565b9150506020830151848203602086015261097f82826108f6565b91505060408301516109946040860182610939565b50606083015184820360608601526109ac82826108f6565b9150508091505092915050565b600060208201905081810360008301526109d38184610948565b905092915050565b600073ffffffffffffffffffffffffffffffffffffffff82169050919050565b6000610a06826109db565b9050919050565b610a16816109fb565b82525050565b6000602082019050610a316000830184610a0d565b92915050565b600082825260208201905092915050565b6000610a53826108b0565b610a5d8185610a37565b9350610a6d8185602086016108cc565b610a7681610654565b840191505092915050565b610a8a8161092f565b82525050565b60006080820190508181036000830152610aaa8187610a48565b90508181036020830152610abe8186610a48565b9050610acd6040830185610a81565b8181036060830152610adf8184610a48565b905095945050505050565b7f4f6e6c79206f776e65722063616e20697373756520636572746966696361746560008201527f7300000000000000000000000000000000000000000000000000000000000000602082015250565b6000610b46602183610a37565b9150610b5182610aea565b604082019050919050565b60006020820190508181036000830152610b7581610b39565b9050919050565b600081905092915050565b6000610b92826108b0565b610b9c8185610b7c565b9350610bac8185602086016108cc565b80840191505092915050565b6000610bc48284610b87565b915081905092915050565b7f4e487b7100000000000000000000000000000000000000000000000000000000600052602260045260246000fd5b60006002820490506001821680610c1657607f821691505b602082108103610c2957610c28610bcf565b5b50919050565b60008190508160005260206000209050919050565b60006020601f8301049050919050565b600082821b905092915050565b600060088302610c917fffffffffffffffffffffffffffffffffffffffffffffffffffffffffffffffff82610c54565b610c9b8683610c54565b95508019841693508086168417925050509392505050565b6000819050919050565b6000610cd8610cd3610cce8461092f565b610cb3565b61092f565b9050919050565b6000819050919050565b610cf283610cbd565b610d06610cfe82610cdf565b848454610c61565b825550505050565b600090565b610d1b610d0e565b610d26818484610ce9565b505050565b5b81811015610d4a57610d3f600082610d13565b600181019050610d2c565b5050565b601f821115610d8f57610d6081610c2f565b610d6984610c44565b81016020851015610d78578190505b610d8c610d8485610c44565b830182610d2b565b50505b505050565b600082821c905092915050565b6000610db260001984600802610d94565b1980831691505092915050565b6000610dcb8383610da1565b9150826002028217905092915050565b610de4826108b0565b67ffffffffffffffff811115610dfd57610dfc610665565b5b610e078254610bfe565b610e12828285610d4e565b600060209050601f831160018114610e455760008415610e33578287015190505b610e3d8582610dbf565b865550610ea5565b601f198416610e5386610c2f565b60005b82811015610e7b57848901518255600182019150602085019450602081019050610e56565b86831015610e985784890151610e94601f891682610da1565b8355505b6001600288020188555050505b50505050505056fea2646970667358221220ac2b3ccf7fcc971d4faef6930d8f3da922cf0374d3322e3dcdc5a11e428a262964736f6c634300081c0033",
  "linkReferences": {},
  "deployedLinkReferences": {}
}